:100000000C9462000C948A000C948A000C944702B1
:100010000C9447020C9447020C948A000C948A00BA
:100020000C948A000C948A000C948A000C948A0028
:100030000C948A000C948A000C948A000C948A0018
:100040000C944F030C948A000C944E060C9480067A
:100050000C948A000C948A000C948A000C948A00F8
:100060000C948A000C948A00000000080002010031
:100070000003040700000000000000000102040863
:100080001020408001020408102001020408102002
:10009000040404040404040402020202020203032E
:1000A00003030303000000002300260029000000D2
:1000B0000000250028002B0000000000240027007D
:1000C0002A00B00611241FBECFEFD8E0DEBFCDBF9F
:1000D00011E0A0E0B1E0E4E2F2E102C005900D928F
:1000E000A037B107D9F726E0A0E7B1E001C01D9223
:1000F000A932B207E1F710E0C4ECD0E004C02297C7
:10010000FE010E940C09C23CD107C9F70E94B60744
:100110000C9410090C940000CF93DF9383E00E94AD
:100120002B0482E00E942B04EC0181E00E942B044E
:100130009C01893C910514F080E401C088E4C93C2D
:10014000D1050CF48F5F293C31050CF48E5FDF91F3
:10015000CF9108950F931F93CF938CE00E94E004FA
:10016000C1E0892B09F4C0E080910A01C81751F061
:100170000E949903609370057093710580937205D6
:10018000909373050E949903009170051091710579
:100190002091720530917305601B710B820B930BDC
:1001A0000091060110910701209108013091090189
:1001B0000617170728073907C8F480917405C81770
:1001C000A9F0C0937405C11111C061E08DE00E94D7
:1001D000AA0466E970E080E090E00E94C80360E055
:1001E0008DE0CF911F910F910C94AA04C0930A0146
:1001F000B4CF0E94AA006091040170910501882784
:1002000077FD8095982F0E94F9072DEC3CEC4CEC83
:100210005DE30E9485080E94C60770930501609304
:10022000040108958830910530F02FE030E0A901F5
:10023000481B590BCA016830710530F02FE030E0DF
:10024000A901461B570BBA0120E130E0281B390BEE
:10025000C901861B970B0895EF92FF920F931F938E
:10026000CF93DF9370E7E72E73E0F72E00E010E006
:10027000C0E0D0E0BE01C8010E941201FE01EE0FF5
:10028000FF1FEE0DFF1D918380834AE050E0BC010B
:100290008CE895E00E94AF0768E371E08CE895E098
:1002A0000E9431072196C031D10521F78CE895E0F5
:1002B0000E9433070F5F1F4F80E2E80EF11C0031F0
:1002C0001105B1F66BE371E08CE895E00E94370709
:1002D000C0E7D1E000E010E0FE01E00FF11F118265
:1002E00010824AE050E060E070E08CE895E00E9407
:1002F000AF0768E371E08CE895E00E9431070E5F7C
:100300001F4F0032110541F78CE895E00E9433073A
:10031000A09683E0C037D807E9F6DF91CF911F910F
:100320000F91FF90EF90089526E040E855E260E0DD
:1003300070E08CE895E00E94EC0524E045E063E085
:1003400082E00E94F20262E08CE00E9471040E944E
:100350002C010E94AA000C948C00FC0111821082D6
:1003600013821282158214821682683068F489E240
:1003700090E0918380838BE290E0938382838AE292
:1003800090E0958384831FC06E3070F483E290E028
:100390009183808385E290E09383828384E290E07E
:1003A0009583848368500FC0653198F486E290E0AD
:1003B0009183808388E290E09383828387E290E058
:1003C000958384836E5081E001C0880F6A95EAF7B7
:1003D00086830895CF93DF93CDB7DEB727970FB607
:1003E000F894DEBF0FBECDBF682FCE0101960E94EC
:1003F000AD0189819A81839731F480916B009F814F
:10040000892B80936B0089819A81869731F4809142
:100410006C009F81892B80936C0089819A818997D8
:1004200031F480916D009F81892B80936D00ED8167
:10043000FE8190818F818095892380838FEF8093C7
:10044000680027960FB6F894DEBF0FBECDBFDF91D0
:10045000CF910895CF93DF93CDB7DEB727970FB62F
:10046000F894DEBF0FBECDBF682FCE0101960E946B
:10047000AD01E981FA8190818F81892327960FB69A
:10048000F894DEBF0FBECDBFDF91CF9108951F92CC
:100490000F920FB60F9211241F932F933F934F93F8
:1004A0005F936F937F938F939F93AF93BF93CF93FC
:1004B000DF93EF93FF93809182050E942A02C1E0AF
:1004C000811101C0C0E0809181050E942A02D1E023
:1004D000811101C0D0E0809180050E942A0211E0C4
:1004E000811101C010E080917F050E942A02E1E0A5
:1004F000811101C0E0E04091760560917805F091AE
:10050000750520917705C41749F080917D0590917C
:100510007E05019690937E0580937D05161749F020
:1005200080917D0590917E05019790937E05809343
:100530007D05DF1749F080917B0590917C05019640
:1005400090937C0580937B05E21749F080917B05B1
:1005500090917C05019790937C0580937B058C2F6F
:1005600090E0772767FD70958617970759F0612F00
:1005700070E0552747FD50956417750719F081E025
:1005800080937A054D2F50E0332727FD3095421791
:10059000530761F02E2F30E08F2F992787FD90951C
:1005A0002817390719F081E080937905C093780501
:1005B00010937605D0937705E0937505FF91EF9141
:1005C000DF91CF91BF91AF919F918F917F916F916B
:1005D0005F914F913F912F911F910F900FBE0F9000
:1005E0001F901895CF93DF9300D01F92CDB7DEB741
:1005F00080938205609380054093810520937F0559
:10060000F8942B834A8369830E94EA016981862FCB
:100610000E94EA014A81842F0E94EA012B81822FE5
:100620000E94EA0110927E0510927D0510927C05D1
:1006300010927B0510927A051092790580918205BF
:100640000E942A0291E0811101C090E09093780508
:10065000809180050E942A0291E0811101C090E002
:1006600090937605809181050E942A0291E0811184
:1006700001C090E09093770580917F050E942A0247
:1006800091E0811101C090E0909375058FEF8BBBD5
:1006900078940F900F900F90DF91CF9108951F9253
:1006A0000F920FB60F9211242F933F938F939F9326
:1006B000AF93BF938091840590918505A0918605A5
:1006C000B09187053091830523E0230F2D3720F467
:1006D0000196A11DB11D05C026E8230F0296A11D9C
:1006E000B11D209383058093840590938505A09385
:1006F0008605B09387058091880590918905A09122
:100700008A05B0918B050196A11DB11D80938805C6
:1007100090938905A0938A05B0938B05BF91AF9103
:100720009F918F913F912F910F900FBE0F901F902F
:1007300018952FB7F8946091840570918505809184
:100740008605909187052FBF08953FB7F894809153
:10075000880590918905A0918A05B0918B0526B5F1
:10076000A89B05C02F3F19F00196A11DB11D3FBFE9
:100770006627782F892F9A2F620F711D811D911D79
:1007800042E0660F771F881F991F4A95D1F7089599
:10079000CF92DF92EF92FF92CF93DF936B017C01B8
:1007A0000E94A503EB01C114D104E104F10489F016
:1007B0000E94C5070E94A5036C1B7D0B683E734019
:1007C00090F381E0C81AD108E108F108C851DC4F64
:1007D000EACFDF91CF91FF90EF90DF90CF90089517
:1007E000789484B5826084BD84B5816084BD85B50C
:1007F000826085BD85B5816085BDEEE6F0E08081D3
:1008000081608083E1E8F0E01082808182608083F3
:10081000808181608083E0E8F0E080818160808376
:10082000E1EBF0E0808184608083E0EBF0E08081A8
:1008300081608083EAE7F0E080818460808380814A
:1008400082608083808181608083808180688083F2
:100850001092C10008958E3008F08E50877020915C
:100860000B0190E4299F90011124822B80937C003E
:1008700080917A00806480937A0080917A0086FD6E
:10088000FCCF809178002091790090E0922B089520
:10089000833081F028F4813099F08230A1F00895FE
:1008A0008730A9F08830B9F08430D1F4809180008D
:1008B0008F7D03C0809180008F77809380000895A2
:1008C00084B58F7702C084B58F7D84BD08958091F3
:1008D000B0008F7703C08091B0008F7D8093B0000F
:1008E0000895CF93DF9390E0FC01E458FF4F2491EB
:1008F000FC01E057FF4F8491882349F190E0880F75
:10090000991FFC01E854FF4FA591B49182559F4F68
:10091000FC01C591D4919FB7611108C0F8948C91E6
:10092000209582238C93888182230AC0623051F4FF
:10093000F8948C91322F309583238C938881822B6D
:10094000888304C0F8948C91822B8C939FBFDF9195
:10095000CF9108950F931F93CF93DF931F92CDB73D
:10096000DEB7282F30E0F901E859FF4F8491F901F3
:10097000E458FF4F1491F901E057FF4F0491002311
:10098000C9F0882321F069830E9448046981E02F1F
:10099000F0E0EE0FFF1FE255FF4FA591B4919FB716
:1009A000F8948C91611103C01095812301C0812BB3
:1009B0008C939FBF0F90DF91CF911F910F9108955E
:1009C000CF93DF93282F30E0F901E859FF4F84914E
:1009D000F901E458FF4FD491F901E057FF4FC4915A
:1009E000CC2391F081110E944804EC2FF0E0EE0F2F
:1009F000FF1FEC55FF4FA591B4912C912D2381E061
:100A000090E021F480E002C080E090E0DF91CF919F
:100A10000895FC01818D228D90E0805C9F4F821BA8
:100A200091098F7399270895FC01918D828D9817F4
:100A300031F0828DE80FF11D858D90E008958FEFE4
:100A40009FEF0895FC01918D828D981761F0828D42
:100A5000DF01A80FB11D5D968C91928D9F5F9F73F2
:100A6000928F90E008958FEF9FEF089586EA96E0C9
:100A7000892B49F080E090E0892B29F00E94A6069E
:100A800081110C9400000895FC01848DDF01A80FF2
:100A9000B11DA35ABF4F2C91848D90E001968F73A6
:100AA0009927848FA689B7892C93A089B1898C91C5
:100AB00080648C93938D848D981306C00288F3898B
:100AC000E02D80818F7D80830895CF93DF93EC01AB
:100AD000888D8823C9F0EA89FB89808185FD05C05E
:100AE000A889B9898C9186FD0FC00FB607FCF5CF98
:100AF000808185FFF2CFA889B9898C9185FFEDCFE0
:100B0000CE010E944405E7CFDF91CF910895CF92A7
:100B1000DF92FF920F931F93CF93DF931F92CDB776
:100B2000DEB76C0181E0D60158968C9358975B969E
:100B30009C915B975C968C915C97981307C050963C
:100B4000ED91FC915197808185FD2EC0F601038DBA
:100B500010E00F5F1F4F0F731127F02EF601848DE9
:100B6000F81211C00FB607FCF9CFD6015096ED91DF
:100B7000FC915197808185FFF1CFC60169830E9466
:100B800044056981EBCF838DE80FF11DE35AFF4FD8
:100B90006083D6015B960C935B975296ED91FC9126
:100BA0005397808180620CC0D6015696ED91FC91DE
:100BB000579760835096ED91FC91519780818064A6
:100BC000808381E090E00F90DF91CF911F910F9192
:100BD000FF90DF90CF900895BF92CF92DF92EF9277
:100BE000FF92CF93DF93EC016A017B01B22EE8897B
:100BF000F98982E08083411581EE5807610571050E
:100C0000A1F060E079E08DE390E0A70196010E94F9
:100C1000E808215031094109510956954795379502
:100C20002795211580E1380798F0E889F989108225
:100C300060E874E88EE190E0A70196010E94E80860
:100C40002150310941095109569547953795279506
:100C5000EC85FD853083EE85FF852083188EEC8939
:100C6000FD89B082EA89FB89808180618083EA897D
:100C7000FB89808188608083EA89FB898081806824
:100C80008083EA89FB8980818F7D8083DF91CF918A
:100C9000FF90EF90DF90CF90BF9008951F920F923A
:100CA0000FB60F9211242F938F939F93EF93FF937F
:100CB000E0919C05F0919D058081E091A205F09165
:100CC000A30582FD12C090818091A5058F5F8F736F
:100CD0002091A605821751F0E091A505F0E0E457B8
:100CE000FA4F958F8093A50501C08081FF91EF9108
:100CF0009F918F912F910F900FBE0F901F9018957D
:100D00001F920F920FB60F9211242F933F934F9380
:100D10005F936F937F938F939F93AF93BF93EF9363
:100D2000FF938CE895E00E944405FF91EF91BF91FD
:100D3000AF919F918F917F916F915F914F913F9173
:100D40002F910F900FBE0F901F9018958CE895E093
:100D50000E94090521E0892B09F420E0822F0895E3
:100D600010928F0510928E0588EE93E0A0E0B0E01F
:100D70008093900590939105A0939205B09393056D
:100D800083E591E090938D0580938C0585EC90E050
:100D9000909399058093980584EC90E090939B053F
:100DA00080939A0580EC90E090939D0580939C053C
:100DB00081EC90E090939F0580939E0582EC90E0FB
:100DC0009093A1058093A00586EC90E09093A305F5
:100DD0008093A2051092A5051092A6051092A70572
:100DE0001092A8050895CF92DF92EF92FF920F9391
:100DF0001F93CF93DF937C016A01EB0100E010E0C9
:100E00000C151D0571F06991D701ED91FC910190D0
:100E1000F081E02DC7010995892B19F00F5F1F4F55
:100E2000EFCFC801DF91CF911F910F91FF90EF900D
:100E3000DF90CF9008956115710581F0DB010D9071
:100E40000020E9F7AD0141505109461B570BDC0169
:100E5000ED91FC910280F381E02D099480E090E017
:100E600008950C941B076FE571E00C941B070F931A
:100E70001F93CF93DF93EC010E941B078C01CE01DF
:100E80000E943307800F911FDF91CF911F910F9127
:100E900008958F929F92AF92BF92CF92DF92EF927E
:100EA000FF920F931F93CF93DF93CDB7DEB7A19738
:100EB0000FB6F894DEBF0FBECDBF7C01C42EE52F68
:100EC000CB01D22E19A221E02D1510F02AE0D22E4E
:100ED0008E010F5D1F4F8D2C912CA12CB12C6C2DF0
:100EE0007E2FA50194010E94E8088C2DD29E8019C6
:100EF0001124015011098A3014F4805D01C0895C0D
:100F0000F8018083211531054105510521F0C22EDC
:100F1000E32FCA01E4CFB801C7010E941B07A196C5
:100F20000FB6F894DEBF0FBECDBFDF91CF911F91FA
:100F30000F91FF90EF90DF90CF90BF90AF909F9078
:100F40008F9008952115310541F4DC01ED91FC915C
:100F50000190F081E02D642F09940C9449079A01C7
:100F6000AB0160E070E00C94A20708950E94F003CA
:100F70000E94B5070E949401C6E3D5E00E94F900E3
:100F80002097E1F30E943605F9CF089504D06894C4
:100F9000B111B5C0089598D088F09F5790F0B92F3F
:100FA0009927B751A0F0D1F0660F771F881F991FBE
:100FB0001AF0BA95C9F712C0B13081F09FD0B1E0F4
:100FC00008959CC0672F782F8827B85F39F0B93F04
:100FD000CCF3869577956795B395D9F73EF49095C0
:100FE0008095709561957F4F8F4F9F4F0895E8943E
:100FF00009C097FB3EF490958095709561957F4F61
:101000008F4F9F4F9923A9F0F92F96E9BB2793950E
:10101000F695879577956795B795F111F8CFFAF41E
:10102000BB0F11F460FF1BC06F5F7F4F8F4F9F4F4F
:1010300016C0882311F096E911C0772321F09EE8AD
:10104000872F762F05C0662371F096E8862F70E013
:1010500060E02AF09A95660F771F881FDAF7880FED
:101060009695879597F9089597F99F6780E870E0BE
:1010700060E008959FEF80EC089500240A9416160E
:10108000170618060906089500240A941216130676
:10109000140605060895092E0394000C11F4882304
:1010A00052F0BB0F40F4BF2B11F460FF04C06F5F20
:1010B0007F4F8F4F9F4F089557FD9058440F551FF6
:1010C00059F05F3F71F04795880F97FB991F61F0CA
:1010D0009F3F79F087950895121613061406551F41
:1010E000F2CF4695F1DF08C0161617061806991FAD
:1010F000F1CF86957105610508940895E894BB27A2
:1011000066277727CB0197F908950BD0C4CFB5DFB9
:1011100028F0BADF18F0952309F0A6CFABCF112441
:10112000EECFCADFA0F3959FD1F3950F50E0551F86
:10113000629FF001729FBB27F00DB11D639FAA272C
:10114000F00DB11DAA1F649F6627B00DA11D661F7B
:10115000829F2227B00DA11D621F739FB00DA11D9C
:10116000621F839FA00D611D221F749F3327A00D56
:10117000611D231F849F600D211D822F762F6A2FF2
:1011800011249F5750408AF0E1F088234AF0EE0F77
:10119000FF1FBB1F661F771F881F91505040A9F784
:1011A0009E3F510570F060CFAACF5F3FECF3983EB1
:1011B000DCF3869577956795B795F795E7959F5FEB
:1011C000C1F7FE2B880F911D9695879597F9089585
:1011D000A1E21A2EAA1BBB1BFD010DC0AA1FBB1F3B
:1011E000EE1FFF1FA217B307E407F50720F0A21BAD
:1011F000B30BE40BF50B661F771F881F991F1A941A
:1012000069F760957095809590959B01AC01BD0143
:10121000CF010895EE0FFF1F0590F491E02D099482
:04122000F894FFCF70
:10122400010000007F003200000001014E6F2077B2
:10123400616C6C73004E6F2072696768742077610B
:101244006C6C004E6F206C6566742077616C6C006A
:10125400322077616C6C73002C20002D2D2D2D2DE8
:101264002D2D2D2D2D2D2D2D2D2D2D2D2D2D000004
:101274000000008705F30609052205140565050D20
:101284000A006E616E00696E66006F7666002E005D
:00000001FF
